{
  "_format": "hh-sol-artifact-1",
  "contractName": "Exchange",
  "sourceName": "contracts/Exchange.sol",
  "abi": [
    {
      "inputs": [
        {
          "internalType": "address",
          "name": "_feeAccount",
          "type": "address"
        },
        {
          "internalType": "uint256",
          "name": "_feePercent",
          "type": "uint256"
        }
      ],
      "stateMutability": "nonpayable",
      "type": "constructor"
    },
    {
      "anonymous": false,
      "inputs": [
        {
          "indexed": false,
          "internalType": "uint256",
          "name": "id",
          "type": "uint256"
        },
        {
          "indexed": false,
          "internalType": "address",
          "name": "user",
          "type": "address"
        },
        {
          "indexed": false,
          "internalType": "address",
          "name": "tokenGet",
          "type": "address"
        },
        {
          "indexed": false,
          "internalType": "uint256",
          "name": "amountGet",
          "type": "uint256"
        },
        {
          "indexed": false,
          "internalType": "address",
          "name": "tokenGive",
          "type": "address"
        },
        {
          "indexed": false,
          "internalType": "uint256",
          "name": "amountGive",
          "type": "uint256"
        },
        {
          "indexed": false,
          "internalType": "uint256",
          "name": "timestamp",
          "type": "uint256"
        }
      ],
      "name": "Cancel",
      "type": "event"
    },
    {
      "anonymous": false,
      "inputs": [
        {
          "indexed": false,
          "internalType": "address",
          "name": "token",
          "type": "address"
        },
        {
          "indexed": false,
          "internalType": "address",
          "name": "user",
          "type": "address"
        },
        {
          "indexed": false,
          "internalType": "uint256",
          "name": "amount",
          "type": "uint256"
        },
        {
          "indexed": false,
          "internalType": "uint256",
          "name": "balance",
          "type": "uint256"
        }
      ],
      "name": "Deposit",
      "type": "event"
    },
    {
      "anonymous": false,
      "inputs": [
        {
          "indexed": false,
          "internalType": "uint256",
          "name": "id",
          "type": "uint256"
        },
        {
          "indexed": false,
          "internalType": "address",
          "name": "user",
          "type": "address"
        },
        {
          "indexed": false,
          "internalType": "address",
          "name": "tokenGet",
          "type": "address"
        },
        {
          "indexed": false,
          "internalType": "uint256",
          "name": "amountGet",
          "type": "uint256"
        },
        {
          "indexed": false,
          "internalType": "address",
          "name": "tokenGive",
          "type": "address"
        },
        {
          "indexed": false,
          "internalType": "uint256",
          "name": "amountGive",
          "type": "uint256"
        },
        {
          "indexed": false,
          "internalType": "uint256",
          "name": "timestamp",
          "type": "uint256"
        }
      ],
      "name": "Order",
      "type": "event"
    },
    {
      "anonymous": false,
      "inputs": [
        {
          "indexed": false,
          "internalType": "uint256",
          "name": "id",
          "type": "uint256"
        },
        {
          "indexed": false,
          "internalType": "address",
          "name": "user",
          "type": "address"
        },
        {
          "indexed": false,
          "internalType": "address",
          "name": "tokenGet",
          "type": "address"
        },
        {
          "indexed": false,
          "internalType": "uint256",
          "name": "amountGet",
          "type": "uint256"
        },
        {
          "indexed": false,
          "internalType": "address",
          "name": "tokenGive",
          "type": "address"
        },
        {
          "indexed": false,
          "internalType": "uint256",
          "name": "amountGive",
          "type": "uint256"
        },
        {
          "indexed": false,
          "internalType": "address",
          "name": "creator",
          "type": "address"
        },
        {
          "indexed": false,
          "internalType": "uint256",
          "name": "timestamp",
          "type": "uint256"
        }
      ],
      "name": "Trade",
      "type": "event"
    },
    {
      "anonymous": false,
      "inputs": [
        {
          "indexed": false,
          "internalType": "address",
          "name": "token",
          "type": "address"
        },
        {
          "indexed": false,
          "internalType": "address",
          "name": "user",
          "type": "address"
        },
        {
          "indexed": false,
          "internalType": "uint256",
          "name": "amount",
          "type": "uint256"
        },
        {
          "indexed": false,
          "internalType": "uint256",
          "name": "balance",
          "type": "uint256"
        }
      ],
      "name": "Withdraw",
      "type": "event"
    },
    {
      "inputs": [
        {
          "internalType": "address",
          "name": "_token",
          "type": "address"
        },
        {
          "internalType": "address",
          "name": "_user",
          "type": "address"
        }
      ],
      "name": "balanceOf",
      "outputs": [
        {
          "internalType": "uint256",
          "name": "",
          "type": "uint256"
        }
      ],
      "stateMutability": "view",
      "type": "function"
    },
    {
      "inputs": [
        {
          "internalType": "uint256",
          "name": "_id",
          "type": "uint256"
        }
      ],
      "name": "cancelOrder",
      "outputs": [],
      "stateMutability": "nonpayable",
      "type": "function"
    },
    {
      "inputs": [
        {
          "internalType": "address",
          "name": "_token",
          "type": "address"
        },
        {
          "internalType": "uint256",
          "name": "_amount",
          "type": "uint256"
        }
      ],
      "name": "depositToken",
      "outputs": [],
      "stateMutability": "nonpayable",
      "type": "function"
    },
    {
      "inputs": [],
      "name": "feeAccount",
      "outputs": [
        {
          "internalType": "address",
          "name": "",
          "type": "address"
        }
      ],
      "stateMutability": "view",
      "type": "function"
    },
    {
      "inputs": [],
      "name": "feePercent",
      "outputs": [
        {
          "internalType": "uint256",
          "name": "",
          "type": "uint256"
        }
      ],
      "stateMutability": "view",
      "type": "function"
    },
    {
      "inputs": [
        {
          "internalType": "uint256",
          "name": "_id",
          "type": "uint256"
        }
      ],
      "name": "fillOrder",
      "outputs": [],
      "stateMutability": "nonpayable",
      "type": "function"
    },
    {
      "inputs": [
        {
          "internalType": "address",
          "name": "_tokenGet",
          "type": "address"
        },
        {
          "internalType": "uint256",
          "name": "_amountGet",
          "type": "uint256"
        },
        {
          "internalType": "address",
          "name": "_tokenGive",
          "type": "address"
        },
        {
          "internalType": "uint256",
          "name": "_amountGive",
          "type": "uint256"
        }
      ],
      "name": "makeOrder",
      "outputs": [],
      "stateMutability": "nonpayable",
      "type": "function"
    },
    {
      "inputs": [
        {
          "internalType": "uint256",
          "name": "",
          "type": "uint256"
        }
      ],
      "name": "orderCancelled",
      "outputs": [
        {
          "internalType": "bool",
          "name": "",
          "type": "bool"
        }
      ],
      "stateMutability": "view",
      "type": "function"
    },
    {
      "inputs": [],
      "name": "orderCount",
      "outputs": [
        {
          "internalType": "uint256",
          "name": "",
          "type": "uint256"
        }
      ],
      "stateMutability": "view",
      "type": "function"
    },
    {
      "inputs": [
        {
          "internalType": "uint256",
          "name": "",
          "type": "uint256"
        }
      ],
      "name": "orderFilled",
      "outputs": [
        {
          "internalType": "bool",
          "name": "",
          "type": "bool"
        }
      ],
      "stateMutability": "view",
      "type": "function"
    },
    {
      "inputs": [
        {
          "internalType": "uint256",
          "name": "",
          "type": "uint256"
        }
      ],
      "name": "orders",
      "outputs": [
        {
          "internalType": "uint256",
          "name": "id",
          "type": "uint256"
        },
        {
          "internalType": "address",
          "name": "user",
          "type": "address"
        },
        {
          "internalType": "address",
          "name": "tokenGet",
          "type": "address"
        },
        {
          "internalType": "uint256",
          "name": "amountGet",
          "type": "uint256"
        },
        {
          "internalType": "address",
          "name": "tokenGive",
          "type": "address"
        },
        {
          "internalType": "uint256",
          "name": "amountGive",
          "type": "uint256"
        },
        {
          "internalType": "uint256",
          "name": "timestamp",
          "type": "uint256"
        }
      ],
      "stateMutability": "view",
      "type": "function"
    },
    {
      "inputs": [
        {
          "internalType": "address",
          "name": "",
          "type": "address"
        },
        {
          "internalType": "address",
          "name": "",
          "type": "address"
        }
      ],
      "name": "tokens",
      "outputs": [
        {
          "internalType": "uint256",
          "name": "",
          "type": "uint256"
        }
      ],
      "stateMutability": "view",
      "type": "function"
    },
    {
      "inputs": [
        {
          "internalType": "address",
          "name": "_token",
          "type": "address"
        },
        {
          "internalType": "uint256",
          "name": "_amount",
          "type": "uint256"
        }
      ],
      "name": "withdrawToken",
      "outputs": [],
      "stateMutability": "nonpayable",
      "type": "function"
    }
  ],
  "bytecode": "0x60806040523480156200001157600080fd5b5060405162001d4b38038062001d4b83398181016040528101906200003791906200012b565b816000806101000a81548173ffffffffffffffffffffffffffffffffffffffff021916908373ffffffffffffffffffffffffffffffffffffffff16021790555080600181905550505062000172565b600080fd5b600073ffffffffffffffffffffffffffffffffffffffff82169050919050565b6000620000b8826200008b565b9050919050565b620000ca81620000ab565b8114620000d657600080fd5b50565b600081519050620000ea81620000bf565b92915050565b6000819050919050565b6200010581620000f0565b81146200011157600080fd5b50565b6000815190506200012581620000fa565b92915050565b6000806040838503121562000145576200014462000086565b5b60006200015585828601620000d9565b9250506020620001688582860162000114565b9150509250929050565b611bc980620001826000396000f3fe608060405234801561001057600080fd5b50600436106100cf5760003560e01c806367b830ad1161008c5780639e281a98116100665780639e281a98146101fe578063a85c38ef1461021a578063e9c1896614610250578063f7888aec14610280576100cf565b806367b830ad146101a85780637fd6f15c146101c45780639a5c90aa146101e2576100cf565b80632453ffa8146100d4578063338b5dea146100f25780634a93e0da1461010e578063508493bc1461013e578063514fcac71461016e57806365e17c9d1461018a575b600080fd5b6100dc6102b0565b6040516100e991906112c9565b60405180910390f35b61010c60048036038101906101079190611373565b6102b6565b005b610128600480360381019061012391906113b3565b6104d4565b60405161013591906113fb565b60405180910390f35b61015860048036038101906101539190611416565b6104f4565b60405161016591906112c9565b60405180910390f35b610188600480360381019061018391906113b3565b610519565b005b6101926106cb565b60405161019f9190611465565b60405180910390f35b6101c260048036038101906101bd91906113b3565b6106ef565b005b6101cc6108d3565b6040516101d991906112c9565b60405180910390f35b6101fc60048036038101906101f79190611480565b6108d9565b005b61021860048036038101906102139190611373565b610b14565b005b610234600480360381019061022f91906113b3565b610d7b565b60405161024797969594939291906114e7565b60405180910390f35b61026a600480360381019061026591906113b3565b610e1d565b60405161027791906113fb565b60405180910390f35b61029a60048036038101906102959190611416565b610e3d565b6040516102a791906112c9565b60405180910390f35b60045481565b8173ffffffffffffffffffffffffffffffffffffffff166323b872dd3330846040518463ffffffff1660e01b81526004016102f393929190611556565b602060405180830381600087803b15801561030d57600080fd5b505af1158015610321573d6000803e3d6000fd5b505050506040513d601f19601f8201168201806040525081019061034591906115b9565b610384576040517f08c379a000000000000000000000000000000000000000000000000000000000815260040161037b90611643565b60405180910390fd5b80600260008473ffffffffffffffffffffffffffffffffffffffff1673ffffffffffffffffffffffffffffffffffffffff16815260200190815260200160002060003373ffffffffffffffffffffffffffffffffffffffff1673ffffffffffffffffffffffffffffffffffffffff16815260200190815260200160002060008282546104109190611692565b925050819055507fdcbc1c05240f31ff3ad067ef1ee35ce4997762752e3a095284754544f4c709d7823383600260008773ffffffffffffffffffffffffffffffffffffffff1673ffffffffffffffffffffffffffffffffffffffff16815260200190815260200160002060003373ffffffffffffffffffffffffffffffffffffffff1673ffffffffffffffffffffffffffffffffffffffff168152602001908152602001600020546040516104c894939291906116e8565b60405180910390a15050565b60066020528060005260406000206000915054906101000a900460ff1681565b6002602052816000526040600020602052806000526040600020600091509150505481565b600060036000838152602001908152602001600020905060016005600084815260200190815260200160002060006101000a81548160ff0219169083151502179055503373ffffffffffffffffffffffffffffffffffffffff168160010160009054906101000a900473ffffffffffffffffffffffffffffffffffffffff1673ffffffffffffffffffffffffffffffffffffffff16146105ee576040517f08c379a00000000000000000000000000000000000000000000000000000000081526004016105e590611779565b60405180910390fd5b81816000015414610634576040517f08c379a000000000000000000000000000000000000000000000000000000000815260040161062b906117e5565b60405180910390fd5b7f77de1da0be5f2d3b110d05c6694e5c4ff2d9da7cd23d84353ecf78c7b5acec6182338360020160009054906101000a900473ffffffffffffffffffffffffffffffffffffffff1684600301548560040160009054906101000a900473ffffffffffffffffffffffffffffffffffffffff168660050154426040516106bf97969594939291906114e7565b60405180910390a15050565b60008054906101000a900473ffffffffffffffffffffffffffffffffffffffff1681565b60008111801561070157506004548111155b610740576040517f08c379a000000000000000000000000000000000000000000000000000000000815260040161073790611851565b60405180910390fd5b6006600082815260200190815260200160002060009054906101000a900460ff16156107a1576040517f08c379a0000000000000000000000000000000000000000000000000000000008152600401610798906118bd565b60405180910390fd5b6005600082815260200190815260200160002060009054906101000a900460ff1615610802576040517f08c379a00000000000000000000000000000000000000000000000000000000081526004016107f990611929565b60405180910390fd5b600060036000838152602001908152602001600020905061089f81600001548260010160009054906101000a900473ffffffffffffffffffffffffffffffffffffffff168360020160009054906101000a900473ffffffffffffffffffffffffffffffffffffffff1684600301548560040160009054906101000a900473ffffffffffffffffffffffffffffffffffffffff168660050154610ec4565b6001600660008360000154815260200190815260200160002060006101000a81548160ff0219169083151502179055505050565b60015481565b806108e48333610e3d565b1015610925576040517f08c379a000000000000000000000000000000000000000000000000000000000815260040161091c90611995565b60405180910390fd5b60046000815480929190610938906119b5565b91905055506040518060e0016040528060045481526020013373ffffffffffffffffffffffffffffffffffffffff1681526020018573ffffffffffffffffffffffffffffffffffffffff1681526020018481526020018373ffffffffffffffffffffffffffffffffffffffff168152602001828152602001428152506003600060045481526020019081526020016000206000820151816000015560208201518160010160006101000a81548173ffffffffffffffffffffffffffffffffffffffff021916908373ffffffffffffffffffffffffffffffffffffffff16021790555060408201518160020160006101000a81548173ffffffffffffffffffffffffffffffffffffffff021916908373ffffffffffffffffffffffffffffffffffffffff1602179055506060820151816003015560808201518160040160006101000a81548173ffffffffffffffffffffffffffffffffffffffff021916908373ffffffffffffffffffffffffffffffffffffffff16021790555060a0820151816005015560c082015181600601559050507f9d33853d43e3607b4cc01fdc78338ff2dca6fef7db9232dae6d3eb55fbc3b109600454338686868642604051610b0697969594939291906114e7565b60405180910390a150505050565b80600260008473ffffffffffffffffffffffffffffffffffffffff1673ffffffffffffffffffffffffffffffffffffffff16815260200190815260200160002060003373ffffffffffffffffffffffffffffffffffffffff1673ffffffffffffffffffffffffffffffffffffffff168152602001908152602001600020541015610b9d57600080fd5b8173ffffffffffffffffffffffffffffffffffffffff1663a9059cbb33836040518363ffffffff1660e01b8152600401610bd89291906119fe565b602060405180830381600087803b158015610bf257600080fd5b505af1158015610c06573d6000803e3d6000fd5b505050506040513d601f19601f82011682018060405250810190610c2a91906115b9565b5080600260008473ffffffffffffffffffffffffffffffffffffffff1673ffffffffffffffffffffffffffffffffffffffff16815260200190815260200160002060003373ffffffffffffffffffffffffffffffffffffffff1673ffffffffffffffffffffffffffffffffffffffff1681526020019081526020016000206000828254610cb79190611a27565b925050819055507ff341246adaac6f497bc2a656f546ab9e182111d630394f0c57c710a59a2cb567823383600260008773ffffffffffffffffffffffffffffffffffffffff1673ffffffffffffffffffffffffffffffffffffffff16815260200190815260200160002060003373ffffffffffffffffffffffffffffffffffffffff1673ffffffffffffffffffffffffffffffffffffffff16815260200190815260200160002054604051610d6f94939291906116e8565b60405180910390a15050565b60036020528060005260406000206000915090508060000154908060010160009054906101000a900473ffffffffffffffffffffffffffffffffffffffff16908060020160009054906101000a900473ffffffffffffffffffffffffffffffffffffffff16908060030154908060040160009054906101000a900473ffffffffffffffffffffffffffffffffffffffff16908060050154908060060154905087565b60056020528060005260406000206000915054906101000a900460ff1681565b6000600260008473ffffffffffffffffffffffffffffffffffffffff1673ffffffffffffffffffffffffffffffffffffffff16815260200190815260200160002060008373ffffffffffffffffffffffffffffffffffffffff1673ffffffffffffffffffffffffffffffffffffffff16815260200190815260200160002054905092915050565b6000606460015485610ed69190611a5b565b610ee09190611ae4565b90508084610eee9190611692565b600260008773ffffffffffffffffffffffffffffffffffffffff1673ffffffffffffffffffffffffffffffffffffffff16815260200190815260200160002060003373ffffffffffffffffffffffffffffffffffffffff1673ffffffffffffffffffffffffffffffffffffffff16815260200190815260200160002054610f759190611a27565b600260008773ffffffffffffffffffffffffffffffffffffffff1673ffffffffffffffffffffffffffffffffffffffff16815260200190815260200160002060003373ffffffffffffffffffffffffffffffffffffffff1673ffffffffffffffffffffffffffffffffffffffff1681526020019081526020016000208190555083600260008773ffffffffffffffffffffffffffffffffffffffff1673ffffffffffffffffffffffffffffffffffffffff16815260200190815260200160002060008873ffffffffffffffffffffffffffffffffffffffff1673ffffffffffffffffffffffffffffffffffffffff16815260200190815260200160002060008282546110819190611692565b9250508190555080600260008773ffffffffffffffffffffffffffffffffffffffff1673ffffffffffffffffffffffffffffffffffffffff16815260200190815260200160002060008060009054906101000a900473ffffffffffffffffffffffffffffffffffffffff1673ffffffffffffffffffffffffffffffffffffffff1673ffffffffffffffffffffffffffffffffffffffff16815260200190815260200160002060008282546111359190611692565b9250508190555081600260008573ffffffffffffffffffffffffffffffffffffffff1673ffffffffffffffffffffffffffffffffffffffff16815260200190815260200160002060008873ffffffffffffffffffffffffffffffffffffffff1673ffffffffffffffffffffffffffffffffffffffff16815260200190815260200160002060008282546111c89190611a27565b9250508190555081600260008573ffffffffffffffffffffffffffffffffffffffff1673ffffffffffffffffffffffffffffffffffffffff16815260200190815260200160002060003373ffffffffffffffffffffffffffffffffffffffff1673ffffffffffffffffffffffffffffffffffffffff168152602001908152602001600020600082825461125b9190611692565b925050819055507f0dddf4182dc0fc1a311cb75f049c97403c6b8a99cf6b2229a36e7c526acb3f818733878787878c4260405161129f989796959493929190611b15565b60405180910390a150505050505050565b6000819050919050565b6112c3816112b0565b82525050565b60006020820190506112de60008301846112ba565b92915050565b600080fd5b600073ffffffffffffffffffffffffffffffffffffffff82169050919050565b6000611314826112e9565b9050919050565b61132481611309565b811461132f57600080fd5b50565b6000813590506113418161131b565b92915050565b611350816112b0565b811461135b57600080fd5b50565b60008135905061136d81611347565b92915050565b6000806040838503121561138a576113896112e4565b5b600061139885828601611332565b92505060206113a98582860161135e565b9150509250929050565b6000602082840312156113c9576113c86112e4565b5b60006113d78482850161135e565b91505092915050565b60008115159050919050565b6113f5816113e0565b82525050565b600060208201905061141060008301846113ec565b92915050565b6000806040838503121561142d5761142c6112e4565b5b600061143b85828601611332565b925050602061144c85828601611332565b9150509250929050565b61145f81611309565b82525050565b600060208201905061147a6000830184611456565b92915050565b6000806000806080858703121561149a576114996112e4565b5b60006114a887828801611332565b94505060206114b98782880161135e565b93505060406114ca87828801611332565b92505060606114db8782880161135e565b91505092959194509250565b600060e0820190506114fc600083018a6112ba565b6115096020830189611456565b6115166040830188611456565b61152360608301876112ba565b6115306080830186611456565b61153d60a08301856112ba565b61154a60c08301846112ba565b98975050505050505050565b600060608201905061156b6000830186611456565b6115786020830185611456565b61158560408301846112ba565b949350505050565b611596816113e0565b81146115a157600080fd5b50565b6000815190506115b38161158d565b92915050565b6000602082840312156115cf576115ce6112e4565b5b60006115dd848285016115a4565b91505092915050565b600082825260208201905092915050565b7f546f6b656e207472616e73666572206e6f7420617070726f7665640000000000600082015250565b600061162d601b836115e6565b9150611638826115f7565b602082019050919050565b6000602082019050818103600083015261165c81611620565b9050919050565b7f4e487b7100000000000000000000000000000000000000000000000000000000600052601160045260246000fd5b600061169d826112b0565b91506116a8836112b0565b9250827fffffffffffffffffffffffffffffffffffffffffffffffffffffffffffffffff038211156116dd576116dc611663565b5b828201905092915050565b60006080820190506116fd6000830187611456565b61170a6020830186611456565b61171760408301856112ba565b61172460608301846112ba565b95945050505050565b7f556e617574686f72697a65642063616e63656c6c6174696f6e00000000000000600082015250565b60006117636019836115e6565b915061176e8261172d565b602082019050919050565b6000602082019050818103600083015261179281611756565b9050919050565b7f4f7264657220646f65736e277420657869737400000000000000000000000000600082015250565b60006117cf6013836115e6565b91506117da82611799565b602082019050919050565b600060208201905081810360008301526117fe816117c2565b9050919050565b7f4f7264657220646f6573206e6f74206578697374000000000000000000000000600082015250565b600061183b6014836115e6565b915061184682611805565b602082019050919050565b6000602082019050818103600083015261186a8161182e565b9050919050565b7f4f726465722063616e27742062652066696c6c65640000000000000000000000600082015250565b60006118a76015836115e6565b91506118b282611871565b602082019050919050565b600060208201905081810360008301526118d68161189a565b9050919050565b7f4f726465722063616e27742062652063616e63656c6c65640000000000000000600082015250565b60006119136018836115e6565b915061191e826118dd565b602082019050919050565b6000602082019050818103600083015261194281611906565b9050919050565b7f496e73756666696369656e7420546f6b656e20746f206d616b65204f72646572600082015250565b600061197f6020836115e6565b915061198a82611949565b602082019050919050565b600060208201905081810360008301526119ae81611972565b9050919050565b60006119c0826112b0565b91507fffffffffffffffffffffffffffffffffffffffffffffffffffffffffffffffff8214156119f3576119f2611663565b5b600182019050919050565b6000604082019050611a136000830185611456565b611a2060208301846112ba565b9392505050565b6000611a32826112b0565b9150611a3d836112b0565b925082821015611a5057611a4f611663565b5b828203905092915050565b6000611a66826112b0565b9150611a71836112b0565b9250817fffffffffffffffffffffffffffffffffffffffffffffffffffffffffffffffff0483118215151615611aaa57611aa9611663565b5b828202905092915050565b7f4e487b7100000000000000000000000000000000000000000000000000000000600052601260045260246000fd5b6000611aef826112b0565b9150611afa836112b0565b925082611b0a57611b09611ab5565b5b828204905092915050565b600061010082019050611b2b600083018b6112ba565b611b38602083018a611456565b611b456040830189611456565b611b5260608301886112ba565b611b5f6080830187611456565b611b6c60a08301866112ba565b611b7960c0830185611456565b611b8660e08301846112ba565b999850505050505050505056fea26469706673582212208eea681f220eabbc4cf849a119327abd0808988d86516b774f6be1524847fd7a64736f6c63430008090033",
  "linkReferences": {},
  "deployedLinkReferences": {}
}